:020000040800F2
:10000000C81500209D010008CB200008E71B000850
:10001000C920000847080008BF23000800000000AE
:1000200000000000000000000000000005010008C2
:10003000710900080000000049010008CD200008F7
:10004000B7010008B7010008B7010008B7010008B0
:10005000B7010008B7010008B7010008B7010008A0
:10006000B7010008B7010008B7010008B701000890
:10007000B7010008B7010008B7010008B701000880
:10008000B7010008B7010008B7010008B701000870
:10009000B7010008B7010008B7010008730900089C
:1000A000B7010008B7010008B7010008B701000850
:1000B000B7010008592100087D210008B701000898
:1000C000B7010008B7010008B7010008B701000830
:1000D000B7010008B7010008B7010008B701000820
:1000E000B7010008B7010008B7010008DFF810D019
:1000F00000F076FB0048004745320008AFF300806F
:10010000C8150020224B19680868B0E8F00F80F38A
:100110000988BFF36F8F4FF0000080F311884EF015
:100120000D0E70470000000006480068006880F36C
:10013000088862B661B6BFF34F8FBFF36F8F00DFE1
:1001400000BF00BF08ED00E0EFF30980BFF36F8F41
:100150000F4B1A6820E9F00F106008B54FF05000FF
:1001600080F31188BFF34F8FBFF36F8F03F070FCE4
:100170004FF0000080F31188BDE808401968086856
:10018000B0E8F00F80F30988BFF36F8F704700BFAE
:1001900044000020EFF305807047000006488047C8
:1001A00006480047FEE7FEE7FEE7FEE7FEE7FEE75C
:1001B000FEE7FEE7FEE7FEE755210008ED00000838
:1001C000202A04DB203A21FA02F00021704721FAAC
:1001D00002F3D040C2F12002914008431946704713
:1001E00040EA01039B0703D009E008C9121F08C0B9
:1001F000042AFAD203E011F8013B00F8013B521E39
:10020000F9D27047D2B201E000F8012B491EFBD2AF
:1002100070470022F6E710B513460A460446194611
:10022000FFF7F0FF204610BD421C10F8011B00290B
:10023000FBD1801A70472DE9FE4F81EA030404F0D8
:10024000004421F0004100944FF0000B23F00043E4
:1002500050EA01045ED052EA03045BD0C3F30A54AF
:10026000C1F30A552C44A4F2F3340194A0FB0254C8
:10027000C1F3130141F48011C3F3130343F480135A
:1002800001FB024400FB034E840A970A44EA8154AE
:1002900047EA8357A4FB076802958D0A05FB07858B
:1002A0004FEA932C04FB0C542705029D4FEA065895
:1002B00047EA1637B5EB08056EEB070C870E920E72
:1002C00047EA811742EA8312A7FB0201B6EB0B0152
:1002D00064EB00042B0D43EA0C335E1844EB1C5016
:1002E000DA465146E7FB0201C5F313044FEA0B332C
:1002F00043EA14534FEA0432019C43EA0603A4F193
:100300000C040294009CCDE900B400F0D4F803B0D2
:10031000BDE8F08F00200146F9E796230022114640
:1003200000F08CB80EB540F2334102910021CDE9C6
:1003300000110A460B4600F0BEF803B000BD00F005
:10034000004230F000400AD0C10D01F56071C0F3E9
:10035000160042EA0151C2084007114370470020CD
:100360000146704701F0004330B421F0004150EAEB
:10037000010206D00A0DA2F56072C1F31301002A32
:1003800002DC30BC00207047440F44EAC104C100C5
:10039000E01830BC00EBC25000F047B830B50B4657
:1003A000014600202022012409E021FA02F59D42A5
:1003B00005D303FA02F5491B04FA02F52844151E79
:1003C000A2F10102F1DC30BD2DE9F05F054600200D
:1003D00092469B4688460646814640241BE02846B6
:1003E000414647462246FFF7EBFE53465A46C01A9F
:1003F000914110D311461846224600F003FA2D1AF7
:1004000067EB01084F4622460120002100F0FAF96F
:1004100017EB00094E41201EA4F10104DFDC484621
:1004200031462A464346BDE8F09F0029A8BF7047E1
:10043000401C490008BF20F00100704710B4B0FA1A
:1004400080FC00FA0CF050EA010404BF10BC7047B5
:1004500049B1CCF1200421FA04F411FA0CF118BFCF
:10046000012121430843A3EB0C01CB1D4FEA00619E
:100470004FEA102042BF002010BC704700EBC35071
:1004800010440029A4BF10BC7047401C490008BF9D
:1004900020F0010010BC704710B5141E73F1000469
:1004A00008DA401C41F1000192185B411A4301D166
:1004B00020F0010010BD2DE9F04D92469B4611B190
:1004C000B1FA81F202E0B0FA80F22032904600F0F8
:1004D00099F904460F4640EA0A0041EA0B015346E7
:1004E0005A46084313D0114653EA010019D0C8F107
:1004F00040025046FFF764FE05460E4650465946F8
:10050000424600F07FF9084305D0012004E0204670
:100510003946BDE8F08D0020054346EAE0762C43DD
:1005200037430A986305E40AA0EB08000022FD0A9D
:1005300044EA47540A3002D500200146E9E70105A4
:1005400010196941DDE9084500196941BDE8F04D20
:10055000A2E72DE9FE4F804681EA0300C00F0C465A
:10056000009021F0004123F00045B8EB0200A941C2
:1005700005D24046214690461C460B46024623F0D3
:100580000040104347D0270DC7F30A00C3F30A51B8
:100590000290401A019040286BDAC3F3130040F434
:1005A000801B0098924620B10023D2EB030A63EB34
:1005B0000B0B01985946C0F14002504600F022F959
:1005C00006460D4650465946019A00F02AF910EBAE
:1005D00008006141002487EA115284EAE7731A4354
:1005E00040D0009A62B3019A012A4FEA075215DC03
:1005F000001B61EB02014FF0004202EA0752CDE915
:100600000042001C41F5801132462B46FFF753FF94
:1006100003B0BDE8F08F40462146F9E7001B61EBCF
:100620000201001C41F5801300185B412018A2F55F
:10063000001747EB030140EAD570B6196D4111E090
:100640006D084FEA360645EAC0754FEA0752001BAF
:1006500061EB0201001C41F5801149084FEA3000AE
:100660000019514132462B4603B0BDE8F04FFFF769
:1006700013BF0098012240000023D0EB020263EB7D
:10068000E073009821464FEAE074B8EB000061EB9C
:100690000401E9E783F000435BE781F0004158E79C
:1006A0002DE9F04D81EA030404F0004B21F00045F0
:1006B00014464FF0000A23F0004150EA050220D012
:1006C00054EA01021DD0C5F30A570246C5F31303CD
:1006D000C1F31300C1F30A5640F4801543F48013AC
:1006E000A7EB0608101BD64608F2FD3873EB050091
:1006F00002D308F1010801E092185B41B8F1000F44
:1007000003DA00200146BDE8F08D00204FF480118F
:10071000064684460EE0171B73EB050705D3121B34
:1007200063EB050306434CEA010C49084FEA30002D
:1007300092185B4150EA0107EDD152EA030012D052
:1007400082EA040083EA0501084305D0101BAB418F
:1007500006D20122002306E000224FF0004302E00F
:100760006FF0010253101AEB06004CEB085110EB2E
:100770000A0041EB0B01BDE8F04DFFF78DBEC1F360
:100780000A52C1F3130140F2FF3341F480119A423F
:1007900002DA00200146704740F233439A42A2F247
:1007A000334202DC5242FFF70BBD00F02BB80000D1
:1007B00030B5041E71F1000404DB4FF000444042E8
:1007C00064EB0101141E73F1000405DB1C464FF0BD
:1007D0000043524263EB0403994208BF904230BD8C
:1007E000064C074D06E0E06840F0010394E807007E
:1007F00098471034AC42F6D3FFF77CFC003E00086B
:10080000203E0008202A04DB203A00FA02F10020F2
:1008100070479140C2F1200320FA03F3194390403E
:100820007047202A06DBCB17203A41FA02F043EA50
:10083000E07306E041FA02F3D040C2F12002914099
:10084000084319467047FEE71FB50120009001904C
:10085000032003906946024800F0DEF81FBD000047
:10086000000801402DE9F0410025154E2C460127D6
:100870000121304600F0C0F90028F9D0282002F00C
:10088000B1FA0121304600F0B7F901280BD0C4F1CC
:10089000070007FA00F08543641CE4B2082CE7D394
:1008A0002846BDE8F0810121304600F0A5F9012875
:1008B000F9D0C4F1070007FA00F0C0B20543EBE736
:1008C000000801407FB50446FFF7BEFF274D002218
:1008D0000121284600F095F9122000F053F801227A
:1008E0001146284600F08DF91E2002F07BFA012007
:1008F00000900020019002906946284600F08CF894
:100900000121284600F078F970BB0121284600F04B
:1009100073F90028F9D00121284600F06DF901286B
:10092000F9D0FFF79FFF2070FFF79CFF6070FFF783
:1009300099FFA070FFF796FFE070FFF793FF20711B
:10094000FFF782FF01221146284600F05AF920786D
:100950006178E2780844A1781144084421798842FA
:1009600002D1012004B070BD0020FBE70008014067
:10097000704710B5402000F043F8BDE810408020DB
:1009800000F03EB870B5044600F040F90546601C22
:1009900002D004480078044400F038F9401BA0421B
:1009A000FAD370BD3400002070B5134E402130469C
:1009B00000F022F9114C0125012814D0257002F015
:1009C000FBFA616802F0F0FAE0608021304600F046
:1009D00013F901280BD0657002F0EEFAA16802F05D
:1009E000E3FA206170BD02F0E7FA6060EDE702F023
:1009F000E3FAA06070BD0000000801400000002084
:100A0000044910B50A68024202D00860FFF7CCFF23
:100A100010BD0000140401402DE9F84FDFF8B89133
:100A2000002409F1040A0AF1040B23460F270BF1F5
:100A3000040EC9E00125A5402A40AA427DD1674E97
:100A4000D1F804C0ACEB0608B44532D014DCBCF1DC
:100A5000030F3AD009DCBCF1000F2AD0BCF1010F22
:100A60001CD0BCF1020F31D11DE0BCF1110F17D029
:100A7000BCF1120F2AD119E0B8F5881F19D006DC95
:100A8000B8F5803F15D0B8F5801F1FD111E0B8F53B
:100A9000001F0ED0B8F5041F18D10AE0CB6815E08E
:100AA000CB681B1D12E0CB6808330FE0CB680C331A
:100AB0000CE08B682BB1012B4FF0080303D045618C
:100AC00004E0042302E0056100E00023FF2A01D8CE
:100AD000064601E000F104064FEA840501D9A5F1BC
:100AE0002005D6F8008007FA05FC28EA0C0803FA6E
:100AF00005F548EA0508C6F800804D68ED0062D5A6
:100B0000374DAE6946F00106AE61AD6924F00306CB
:100B100005F001050095334D06EB050CDCF8085097
:100B2000A607360F07FA06F825EA0805DFF8B880A9
:100B3000404503D14FF0000817E044E0DFF8AC80F7
:100B4000404502D14FF001080FE0DFF8A480404596
:100B500002D14FF0020808E0DFF89880404502D14A
:100B60004FF0030801E04FF0040808FA06F848EADD
:100B70000508CCF808804D68D9F80060ED034D46B3
:100B800001D5164300E096432E604D68DAF8006008
:100B9000AD03554601D5164300E096432E604D68DF
:100BA000DBF80060ED025D4601D5164300E0964398
:100BB0002E604D68DEF80060AD02754601D5164323
:100BC00000E096432E60641C0D682A46E5407FF4E1
:100BD00031AFBDE8F88F00000004014000001110A3
:100BE000001002400000014000080140000C0140DC
:100BF00000100140001401408068084000D001202E
:100C000070470AB1016170470904FBE70148806839
:100C1000704700003400002070B5040025D094F81F
:100C20003D00002520B984F83C50204600F04EF9E4
:100C3000242084F83D002068016821F00101016052
:100C40002068016841F4004101602068016821F4D6
:100C50000041016000F0D8FA4D4A6168914201D824
:100C60004C4900E04C49884201D2012070BD4B49FB
:100C70002368B0FBF1F15E6826F03F060E435E602C
:100C80006368934206D94FF4967359434FF47A73CD
:100C9000B1FBF3F12368491C1E6A26F03F0631437D
:100CA00019626168914210D84900401EB0FBF1F210
:100CB000521CC2F30B02042A01D2042022E0B0FB32
:100CC000F1F0401CC0F30B001CE0A268F2B301EB92
:100CD000C10303EB0116431EB3FBF6F35B1C43F4A5
:100CE00080431B0549D092B301EBC10202EB011115
:100CF000401EB0FBF1F0401CC0F30B0040F48040FC
:100D000040F400402168CA694CF6FF739A431043CF
:100D1000C861D4E9071001432068026822F0C002CC
:100D200011430160D4E9030101432068826848F25D
:100D3000FF339A4311438160D4E9050108432168D8
:100D4000CA6822F0FF021043C86001E00EE016E01E
:100D50002068016841F0010101602564202084F8C9
:100D60003D00256384F83E50002070BD01EB410634
:100D7000431EB3FBF6F35B1CB3E70120C2E701EBB4
:100D80004101401EB0FBF1F0401CC0F30B00B7E77F
:100D9000A086010080841E0000093D0040420F0033
:100DA0002DE9F84F1F4690468A460446DDF8289004
:100DB000FFF72CFF054694F83D0020287FD119232A
:100DC000012240492046009500F09AFF002876D184
:100DD00094F83C00012872D0012084F83C0020687F
:100DE0000168C90703D1016841F001010160206871
:100DF000016821F400610160212084F83D00102089
:100E000084F83E0000262664C4F824806785608D3F
:100E100020852D48E0622B464A465146204600F088
:100E2000FBFE90B9206841698069009036E02A464F
:100E30004946204600F0E3FF50B1206C042804D15D
:100E40002068016841F4007101600120BDE8F88F5D
:100E5000606A216800780861606A401C6062618D88
:100E6000491E6185218D491E89B2218522685369F9
:100E7000DB435B070BD451B100781061606A401C02
:100E80006062608D401E6085208D401E20852A4650
:100E90004946204600F00EFF0028CED1208D0028C4
:100EA000C5D154F83D0B016841F400710160202068
:100EB00004F81E09E67766770020C7E7FFE70220FF
:100EC000C4E70000020010000000FFFF10B586B06C
:100ED000002100910191029103910068104988421C
:100EE0001BD1104CA06940F00800A061A0696946C0
:100EF00000F0080004904FF4406000901220019030
:100F0000032003900848FFF787FDE06940F4800064
:100F1000E061E06900F48000049006B010BD0000BC
:100F20000058004000100240000C01400248816857
:100F3000027811448160704734000020074810B5E2
:100F4000016841F010010160032000F095F80020D5
:100F500000F006F800F03EF8002010BD002002402E
:100F600000B5014687B000221E2000F065F81E2063
:100F700000F054F81348C16941F00401C161C0692F
:100F800005A900F004000690684600F01DF900F085
:100F90003BF90D494000B0FBF1F10D480B4A491EE9
:100FA0000260416040F2E7320021C0E90321816024
:100FB00000F060FB10B1012007B000BD044800F054
:100FC000B3FBF9E70010024040420F000008004068
:100FD000900400200F4808B5816941F0010181614A
:100FE000816901F001010091C16941F08051C16145
:100FF000C069002200F0805000900F21901E00F088
:101000001BF80548416821F0E06141F00071416042
:1010100008BD00000010024000000140002809DB6C
:1010200000F01F02012191404009800000F1E02002
:10103000C0F8001170470000F0B40E4B1B680C465E
:10104000C3F30223C3F10705042D00D90425191D9C
:10105000072901D2002300E0DB1E012606FA05F174
:10106000491E214099409E40761E16403143F0BCF7
:1010700001F0B8B90CED00E0064900F0070208687D
:101080004FF6FF03184040EA0220034A104308606D
:10109000704700000CED00E00000FA052DE9F04774
:1010A0000F46050061D0434E306800F00700B8429B
:1010B00009D2306820F0070038433060306800F013
:1010C0000700B84251D128683B4C810712D5400730
:1010D00003D5606840F4E06060602878000703D5BD
:1010E000606840F4605060606068A96820F0F000BB
:1010F000084360602878C00728D06868012810D0AD
:101100002168022810D0890700292EDA616821F0B1
:10111000030101436160FFF779FD804641F28839A0
:101120000DE021688903EFE78901EDE7FFF76EFD28
:10113000A0EB0801494502D90320BDE8F0876068AB
:10114000696800F00C00B0EB810FEFD1306800F05F
:101150000700B8420BD9306820F0070038433060F0
:10116000306800F00700B84201D00120E5E7287898
:10117000400705D56068E96820F4E06008436060D6
:101180002878000706D56068296920F4605040EA95
:10119000C100606000F048F86168084AC1F30311BB
:1011A000515CC8400649086006480068FFF7D8FE51
:1011B0000020C2E70020024000100240C83D0008A5
:1011C00040000020380000200F2202600C4A5368C3
:1011D00003F003034360536803F0F0038360536834
:1011E00003F4E063C36052684FF4E06303EAD202A1
:1011F00002610448006800F00700086070470000C2
:101200000010024000200240044805490068496877
:10121000044AC1F30221515CC840704740000020DD
:1012200000100240D83D000812A185B00FC98DE81A
:101230000F0014A0144A006804905168134801F08C
:101240000C03042B10D0082B0ED1C1F38343C90328
:101250001DF803000AD5516804AAC1F34041515C4E
:101260000A4A5043B0FBF1F005B0704708494843C3
:10127000FAE7000002030405060708090A0B0C0D33
:101280000E0F1010010200000010024000127A0040
:1012900000093D002DE9F84F040070D02078C04DC2
:1012A000C00749D06868C0F38100012807D068688A
:1012B000C0F38100022809D16868C00306D52868F8
:1012C000800339D560680028E7D035E06068B0F564
:1012D000803F0BD010B1B0F5A02F11D0286820F4BA
:1012E00080302860286820F4802002E0286840F4DC
:1012F00080302860606890B1FFF788FC06460AE0FD
:10130000286840F480202860F0E700BFFFF77EFCEB
:10131000801B642873D828688003F7D50CE0FFF79A
:1013200075FC064605E000BFFFF770FC801B6428D3
:10133000F0D828688003F7D420789A4E80074FF0C1
:1013400001094FF0000839D5686810F00C0F07D07C
:101350006868C0F38100022809D16868C00306D418
:101360002868800714D52069012808D110E0206979
:10137000B0B1C6F80090FFF749FC074605E00AE166
:10138000FFF744FCC01B0228C4D828688007F7D5A3
:101390002868616920F0F80040EAC10028600DE08B
:1013A000C6F80080FFF732FC074604E0FFF72EFC8A
:1013B000C01B022823D828688007F7D420780007AC
:1013C0002CD57948A169D9B1C0F80090FFF71EFC6F
:1013D000074604E0FFF71AFCC01B02280FD8686A12
:1013E0008007F7D571484FF4FA510068B0FBF1F06F
:1013F000009000BF0098411E0091FAD20EE080E0FC
:10140000C0F80080FFF702FC074604E0FFF7FEFB90
:10141000C01B022875D8686A8007F7D42078400777
:1014200060D5E8690027C00008D4E86940F0805022
:10143000E861E869012700F0805000905C4801688D
:10144000C90513D40168834641F480710160FFF738
:10145000DDFB824606E000BFFFF7D8FBA0EB0A00E9
:1014600064284ED8DBF80000C005F5D5E0680128F7
:101470000AD008B1052813D0286A20F0010028629C
:10148000286A20F0040002E0286A40F00100286287
:10149000E06841F2883B98B1FFF7B8FB82460BE069
:1014A000286A40F004002862EEE700BFFFF7AEFBB9
:1014B000A0EB0A0159455AD8286A8007F6D50CE0F6
:1014C000FFF7A4FB824605E0FFF7A0FBA0EB0A01B3
:1014D00059454CD8286A8007F6D41FB1E86920F036
:1014E0008050E861E06988B36968C1F3810102292D
:1014F00044D00228C6F8608004D0FFF787FB04467A
:1015000038E034E0FFF782FB074604E0FFF77EFB9C
:10151000C01B02282BD828688001F7D4206AB0F5B8
:10152000803F05D16868A16820F4003008436860F6
:10153000D4E908010843696821F47411084368601C
:10154000C6F86090FFF762FB044606E025E000BFA6
:10155000FFF75CFB001B022809D828688001F7D53B
:101560001BE000BFFFF752FB001B022802D903203B
:10157000BDE8F88F28688001F4D40EE00128F7D088
:101580006868226A00F48031914204D1616A00F4F3
:101590007010884201D00120EAE70020E8E700004F
:1015A00000100240000042428004424240000020FD
:1015B000007000407047704710B590F83C20012A39
:1015C00022D0012280F83C20CA688C6822F4407244
:1015D00022434C6822F4806222430C6822F40062A9
:1015E00022430C6922F4805222434C6922F40052B7
:1015F0002243C969002322F480420A4301684A64F5
:1016000080F83C30002010BD022010BD70B590F86D
:101610003C20012A26D0012480F83C40022280F898
:101620003D2003685A689D6822F070060A683243BC
:101630005A600D4B02689A4208D0B2F1804F05D033
:101640000A4B9A4202D00A4B9A4204D1496825F0CB
:1016500080031943916080F83D40002180F83C10E0
:10166000084670BD022070BD002C014000040040FF
:101670000008004010B5040003D094F83D0010B1FC
:1016800007E0012010BD002084F83C00204600F057
:101690001FF8022084F83D00211D206800F074FD31
:1016A000012084F8460084F83E0084F83F0084F866
:1016B000400084F8410084F8420084F8430084F834
:1016C000440084F8450084F83D00002010BD00006F
:1016D00008B5124A01681248914207D1816941F464
:1016E00000618161806900F4006014E0B1F1804F15
:1016F0000AD00C4A91420FD1C16941F00201C16187
:10170000C06900F0020006E0C16941F00101C16159
:10171000C06900F00100009008BD0000002C0140ED
:10172000001002400004004090F83D10012901D053
:1017300001207047022180F83D100168CA6842F01C
:101740000102CA6000680B49884208D0B0F1804F9E
:1017500005D00949884202D00849884204D18168ED
:1017600001F00701062903D0016841F00101016081
:1017700000207047002C0140000400400008004099
:1017800070B5044690F83C00012817D0012584F874
:101790003C50022084F83D002068826822F07702E5
:1017A00022F47F4282600868502830D00DDC202867
:1017B0004DD005DC98B310283BD148E0022070BD25
:1017C000302844D0402834D139E0602828D070280F
:1017D00006D0B0F5805F2CD0B0F5005F29D10AE0CB
:1017E000CB68D1E90121206800F011FD20688168F3
:1017F00041F0770109E0CB68D1E90121206800F0D0
:1018000006FD2068816841F48041816011E0CA686A
:101810004968206800F0B0FD5021206807E016E01C
:10182000CA684968206800F0B8FD6021206800F0AF
:10183000F8FC84F83D50002084F83C0070BDCA6874
:101840004968206800F098FD40212068EFE7226891
:1018500001461046EBE7704770B504460068016921
:101860004FF00005C943890715D4C168C9438907EA
:1018700011D4E91E0161012020772068806980076A
:10188000204602D0FFF7E7FF04E000F0BFF8204653
:1018900000F04EF9257720680169C943490717D43C
:1018A000C168C943490713D46FF0040101610220E4
:1018B00020772068806910F4407F204602D0FFF72F
:1018C000CAFF04E000F0A2F8204600F031F92577C5
:1018D00020680169C943090716D4C168C9430907CB
:1018E00012D46FF008010161042020772068C069DC
:1018F0008007204602D0FFF7AEFF04E000F086F834
:10190000204600F015F9257720680169C943C9060A
:1019100017D4C168C943C90613D46FF0100101611F
:10192000082020772068C06910F4407F204602D04C
:10193000FFF791FF04E000F069F8204600F0F8F8A6
:10194000257720680169C943C90708D1C168C9431F
:10195000C90704D1891E0161204600F039F92068C9
:101960000169C943090609D4C168C943090605D4F8
:101970006FF0800101612046FFF71CFE20680169BD
:10198000C943490609D4C168C943490605D46FF063
:1019900040010161204600F025F920680169C94332
:1019A00089060BD4C168C943890607D46FF02001AA
:1019B00001612046BDE87040FFF7FDBD70BD00002D
:1019C00000B585B00021009101910291039100685A
:1019D0000B49884212D10B48816941F004018161B1
:1019E0008069694600F0040004904FF44070009054
:1019F0000220019003900448FFF70EF805B000BDE7
:101A0000002C01400010024000080140704770B5F2
:101A1000044690F83C000D4601280AD0012084F8C5
:101A20003C0042B1042A18D0082A2AD00C2A4DD1F1
:101A300039E0022070BD206800F0FCFB206881695D
:101A400041F0080181612068816921F00401816110
:101A5000206881692A69114311E0206800F012FCB6
:101A60002068816941F4006181612068816921F405
:101A700080618161206881692A6941EA022181616E
:101A800024E0206800F02AFC2068C16941F00801C8
:101A9000C1612068C16921F00401C1612068C16988
:101AA0002A69114311E0206800F044FC2068C169F4
:101AB00041F40061C1612068C16921F48061C161A4
:101AC0002068C1692A6941EA0221C161002084F8C5
:101AD0003C0070BD10B5040003D094F83D0010B177
:101AE00007E0012010BD002084F83C00204600F0F3
:101AF0001EF8022084F83D00211D206800F044FB00
:101B0000012084F8460084F83E0084F83F0084F801
:101B1000400084F8410084F8420084F8430084F8CF
:101B2000440084F8450084F83D00002010BD704753
:101B30007047000010B50446022249B104290ED0B6
:101B4000082913D094F84100012816D0012010BDB7
:101B500094F83E000128F9D184F83E200FE094F873
:101B60003F000128F2D184F83F2008E094F84000BB
:101B70000128EBD184F8402001E084F841200122C3
:101B8000206800F037FB0F492068884203D1426C7F
:101B900042F4004242642068884208D0B0F1804F8D
:101BA00005D00949884202D00849884204D1816899
:101BB00001F00701062903D0016841F0010101602D
:101BC000002010BD002C014000040040000800402F
:101BD00000680349884201D1FFF7A8B970470000A7
:101BE000000800407047FEE701684A69D243520589
:101BF0000FD46FF480624A61002140F8301F202228
:101C000042738173026942F0040202610173012090
:101C10007047002070470000F8B50446C06A1E46B1
:101C20000D461746082807D0012805D010F5803F3B
:101C300002D0206B122804D12068016841F4807121
:101C40000160134600224FF001112046009600F07B
:101C500057F840B120680068C00502D54FF4007005
:101C600020640320F8BD2069B0F5804F0ED0062017
:101C7000216800EAD51040F0F000086133463A468A
:101C80000B49204600F070F878B902E005F0FE003C
:101C900000E0E8B221680861054933463A46891FE9
:101CA000204600F061F80028DCD00120F8BD0000DB
:101CB0000800010070B516460D4604460DE02046AA
:101CC000FFF792FF08B1012070BD681C05D0FEF738
:101CD0009DFF801BA84207D835B120684069C043EA
:101CE0004007ECD4002070BD002044F8300F2021C4
:101CF0006173A073216941F0200121612073E2E743
:101D00002DE9F0471E4690460D460446C1F30747AD
:101D1000DDF8209008E0701C06D0FEF777FFA0EBFE
:101D20000900B0420FD876B12068012F18D0806921
:101D300025EA00000004000C14D000214145EAD03F
:101D40000020BDE8F087002044F8300F20216173A7
:101D5000A073216941F02001216120730120F0E787
:101D60004069E5E70121E9E72DE9F0479A46914608
:101D70000E46044600254FF02008C1F3074725E032
:101D800020684069C043400514D42068016841F4CC
:101D90000071016021686FF480604861256384F8F8
:101DA0003D8084F83E50206C40F00400206484F8AC
:101DB0003C501FE0B9F1FF3F08D0FEF727FFA0EB32
:101DC0000A0149450CD8B9F1000F09D02068012F4C
:101DD00013D0806926EA00000004000C0BD0CFE786
:101DE00044F8305F84F80D80A573206940F020002E
:101DF000206125730120BDE8F0874069EAE770B5EE
:101E000016460D4604460DE02046FFF7EDFE08B1EC
:101E1000012070BD681C05D0FEF7F8FE801BA842AB
:101E200007D835B120684069C0430006ECD40020D3
:101E300070BD002044F8300F20216173A073216928
:101E400041F0200121612073E2E700002DE9F0411B
:101E500086B000242F480094019402940394816971
:101E600041F004018161816901F0040104918169FB
:101E700041F0080181618069274F00F0080004905B
:101E8000002210213846FEF7BCFEDFF890800022C9
:101E900003214046FEF7B5FE0125CDE90054694611
:101EA00038460294FEF7B8FD10200226CDE9000561
:101EB000CDE9024669463846FEF7AEFD20208DE8A2
:101EC000310069463846FEF7A7FDC020009014484F
:101ED000CDE9010469463846FEF79EFD0320CDE9B1
:101EE0000005CDE9024669464046FEF795FDF8201B
:101EF0008DE8310069464046FEF78EFD002205213F
:101F00001720FFF799F81720FFF788F806B0BDE80B
:101F1000F08100000010024000080140000C014068
:101F20000000111010B596B000240F941094119475
:101F3000129413941C2168461494FEF76AF9202128
:101F400007A8FEF766F92C482A4901603F21C0E93D
:101F5000011444F61F61C0E9031444618461FFF772
:101F600089FB08B172B6FEE74FF480500F900FA9BD
:101F70002148FFF705FC08B172B6FEE71E48FFF7DF
:101F8000A9FD08B172B6FEE7139413A91A48149478
:101F9000FFF73CFB08B172B6FEE76020CDE9000414
:101FA000029403940494059400226946124806940E
:101FB000FFF72DFD08B172B6FEE7042269460E4810
:101FC000FFF725FD08B172B6FEE70794089409945F
:101FD0004FF400500A94CDE90B4007A906480E942F
:101FE000FFF7EAFA08B172B6FEE70348FFF7E8FC2C
:101FF00016B010BD002C01404001002010B586B085
:1020000000241648009401940294039404944FF021
:102010008041059401603F21C0E901144FF6FF7132
:10202000C0E903148461FFF725FB08B172B6FEE72F
:102030004FF48050009069460848FFF7A1FB08B1B3
:1020400072B6FEE7049404A904480594FFF7DEFA8B
:10205000002801D072B6FEE706B010BD880100204E
:1020600010B586B00024174800940194029403949C
:1020700004941349059401603F21C0E901144FF60F
:10208000FF71C0E903148461FFF7F4FA08B172B676
:10209000FEE74FF48050009069460A48FFF770FB56
:1020A00008B172B6FEE7049404A906480594FFF748
:1020B000ADFA002801D072B6FEE706B010BD0000F0
:1020C00000040040D0010020FEE7FEE710B55020DC
:1020D00080F31188BFF34F8FBFF36F8F01F092FD34
:1020E00018B104494FF080500860002080F3118837
:1020F00010BD000004ED00E030B58FB02821684627
:10210000FEF787F814210AA8FEF783F802250120BC
:10211000049000951020059000244FF46010CDE944
:10212000084007956846FFF7B5F808B172B6FEE7B4
:102130000F20CDE90A054FF48060CDE90C40022163
:102140000AA80E94FEF7AAFF002801D072B6FEE797
:102150000FB030BD7047000010B50648FFF77CFB9C
:10216000054801684FF6E852114401604168413169
:10217000416010BDA4000020140000200148FFF7BA
:102180006BBB000090040020F0B50268164B174CA2
:10219000174D4FF08047984205D0B84203D0A04277
:1021A00001D0A84203D122F070064A683243984217
:1021B00005D0B84203D0A04201D0A84203D122F4F6
:1021C0004074CA6822434C6922F0800222430260B4
:1021D0008A68C2620A688262984201D10969016311
:1021E00001214161F0BD0000002C014000040040CD
:1021F0000008004010B501F01F030121046A994056
:102200008C430462016A9A401143016210BD10B50B
:10221000846842EA032224F47F440A432243826012
:1022200010BD826822F070020A4342F0070181600B
:102230007047000030B5026A22F001020262026AB1
:102240004368846924F073050C682C4322F002056E
:102250008A682A430A4DA8420BD122F00805CA68B1
:1022600023F440732A434D6922F004021D438B6915
:102270002B434360846149684163026230BD0000C2
:10228000002C014030B5026A22F010020262026A9C
:10229000436884690D6824F4E64444EA05248D68A3
:1022A00022F0200242EA05120B4DA8420ED1CD6861
:1022B00022F0800242EA05124D6923F4406343EAAA
:1022C00085038D6922F0400243EA850343608461FF
:1022D00049688163026230BD002C014030B5026A5A
:1022E00022F480720262036A4268C46923F40073B4
:1022F00024F073050C682C438D6843EA05230C4DCC
:10230000A8420ED1CD6823F4006343EA05234D694A
:1023100022F4405242EA05128D6923F4806342EAB6
:1023200005124260C4614968C163036230BD0000A8
:10233000002C014030B5026A22F480520262046A25
:102340004268C3690D6823F4E64343EA05238D68B8
:1023500024F4005444EA0534064DA84204D14D69E2
:1023600022F4804242EA85124260C36149680164F6
:10237000046230BD002C014010B5036A046A24F0E9
:1023800001040462846924F0F00444EA021423F096
:102390000A020A438461026210BD10B5036A23F089
:1023A000100303628369046A23F4704343EA023230
:1023B00024F0A00343EA01118261016210BDFEE72F
:1023C00037B514460846064B6A46214600F0ECF83D
:1023D00004466946002000F06AFC20463EBD00002D
:1023E000AF2C00080907090E002804DB00F1E020EB
:1023F00080F80014704700F00F0000F1E02080F832
:10240000141D704702E008C8121F08C1002AFAD143
:1024100070477047002001E001C1121F002AFBD164
:10242000704700002DE9FF5F82B00021DDE9043034
:10243000020DDDF840B0034318D044F61050A2F26C
:10244000FF3242431514119801281FD0A5EB0B0051
:10245000401C5FEA000A4FF000064E4FDFF838914B
:10246000B046504615D5CAF1000413E01198012476
:102470004AA3012801D16FEA0B010298119AC0E921
:102480000031C0E9024206B0BDE8F09FCBF1000088
:10249000DFE704460021404A491842EB0450CDE9E9
:1024A000001012E0E00707D032463B46404649465E
:1024B000FDF7C1FE8046894632463B461046194626
:1024C000FDF7B9FE06460F466410002CEAD1DDE99F
:1024D0000401DDE90023BAF1000F06DAFDF7ABFED7
:1024E00042464B46FDF7A7FE05E0FEF7D9F8424607
:1024F0004B46FEF7D5F804460E460022284BFEF761
:1025000057F903D84FF0FF30014607E00022254B72
:1025100020463146FEF71DF8FEF731F9102409E098
:10252000002C0ADB0A220023FDF74EFF039B30320A
:102530001A55641E50EA0102F2D1641C039AC4F1D8
:1025400011031444119A012A03D0012208430DD12A
:102550000AE0084304D000204FF0110B119072E7FD
:10256000A3EB0B056D1E0DE05B4504DD4FF0000293
:1025700005F1010504E003DA4FF00002A5F10105C1
:10258000002AECD002981199C0E90231C0E9004557
:1025900079E70000000014400000F03F3000000028
:1025A0000000F0430000E03F2DE9FF4F95B09A4650
:1025B000884606460025EEE1252877D100242746E7
:1025C000F94A0121039400E0044316F8013F203B3F
:1025D00001FA03F01042F7D130782A2811D06FF0B9
:1025E0002F033078A0F13002092A16D8039A44F05C
:1025F000020402EB820203EB42021044761C0390B9
:10260000EFE758F8042B0392002A03DA504244F40F
:102610000054039044F00204761C30782E2816D122
:1026200016F8010F44F004042A280DD06FF02F0291
:102630003078A0F13003092B09D807EB870302EBB0
:102640004303C718761CF3E758F8047B761C3078F0
:102650006C280FD006DC4C2817D068280DD06A28CB
:1026600014D104E0742810D07A280FD10DE044F47E
:1026700000140AE044F4801401E044F44014727839
:10268000824202D104F58014761C761C30786628CC
:102690000BD013DC582877D009DC002875D04528EA
:1026A000F6D04628F4D047281AD193E118E06328E1
:1026B00035D0642879D0652812D18BE1702873D089
:1026C00008DC6728F1D069286FD06E280DD06F28FC
:1026D00006D1ACE073282CD0752874D0782853D05C
:1026E0005246179990476D1C54E1C4F302500228DA
:1026F00009D003280DD0D8F8001004280DD00D60A3
:1027000008F1040846E1D8F80010EA17C1E90052C0
:10271000F6E7D8F800100D80F2E70D70F0E718F832
:10272000041B8DF8001000208DF80100EB460120FD
:1027300003E058F804BB4FF0FF3061074FF0000191
:1027400002D40DE009F101018946B9420FDA814551
:10275000F8DB1BF809100029F4D108E009F10101A8
:1027600089468142FADB1BF809100029F6D103984B
:102770005346A0EB090721463846179A00F080FA25
:10278000284400EB090507E044E008E10DE01BF8F0
:10279000010B524617999047B9F10109F7D25346F8
:1027A00021463846179AF2E039E00A21C4F3025272
:1027B0004FF0000B0091022A06D058F8040BC11705
:1027C000032A09D00AE023E008F1070020F00702FD
:1027D000F2E80201904605E000B2C117042A01D1D7
:1027E00040B2C117002906DA0A460021404261EBD7
:1027F00002012D2202E0220504D52B228DF80420AF
:10280000012203E0E20701D02022F7E7914657E0DA
:102810000A2100E010214FF0000B00910BE0102185
:102820004FF0000B44F004040827009103E0082057
:102830004FF0000B0090C4F30252022A05D058F862
:10284000040B0021032A08D008E008F1070020F05B
:102850000702F2E80201904603E080B2042A00D1A8
:10286000C0B24FF0000922072AD53278702A07D06B
:10287000DDF800C08CF0100C5CEA0B0C05D00EE00B
:1028800040228DF80420012208E050EA010306D01E
:1028900030238DF804308DF8052002229146009BEC
:1028A00083F0080353EA0B030AD150EA010201D175
:1028B000620705D530228DF804204FF001097F1EF4
:1028C0003278582A04D039A20C920CAA02920BE05A
:1028D0003BA2F9E75B46009AFDF776FD0C9B9B5CFB
:1028E000029A521E0292137050EA0102F2D102982B
:1028F00004A9081A00F1200B600702D524F48034E3
:1029000000E001275F4502DDA7EB0B0000E000209F
:1029100000EB0B01009003984944401A0390E00338
:1029200006D453462146179A039800F0A9F90544A6
:10293000002706E001A85246C05D179990476D1C1C
:102940007F1C4F45F6DBE0030CD553462146179A12
:10295000039800F095F9054404E030205246179999
:1029600090476D1C0099481E00900029F5DC08E096
:102970000298029952460078491C02911799904793
:102980006D1CBBF10001ABF1010BF1DC5BE100F070
:1029900065F90544761C307800287FF40DAE19B037
:1029A0002846BDE8F08F000009280100303132339D
:1029B000343536373839616263646566000000007B
:1029C0003031323334353637383941424344454665
:1029D00000000000600700D4062708F1070020F07F
:1029E0000700F0E80223804603F0004C5FEA0C0089
:1029F00001D097A009E0200501D596A005E0E007E9
:102A000001D095A001E0AFF24C001390307823F094
:102A1000004365280CD006DC452809D046281DD087
:102A200047287FD13BE0662818D067287AD136E066
:102A30000021112F01DB112000E0781CCDE90001FD
:102A400004A90CA8FFF7EEFCDDE90D010C9A4FF08C
:102A5000000B07F10109109200914EE04FF0004089
:102A60000097CDE9011004A90CA8FFF7DBFCDDE914
:102A70000D020C9B0F994FF0000B914610930092A2
:102A800011B9791C00EB0109B7EB090003D4C0F1BF
:102A9000FF3B07F10109A9EB0700019042E0012F7C
:102AA00000DA01270021112F01DD112000E0384656
:102AB000CDE9000104A90CA8FFF7B4FCDDE90D0184
:102AC0000C9A00914FF0000BB946109221070FD4D9
:102AD000009A4A4503DA914601E0A9F10109B9F1EA
:102AE000010F05DD109AA9F10101515C3029F4D0E4
:102AF000B84202DA10F1040F03DA0121CDE9011026
:102B000010E0002803DC8344A9EB000102E0411C33
:102B1000494500DD8946A0EB0B00401C01904FF0B9
:102B200000400290200705D40198484502DB4FF091
:102B3000FF30019000208DF84B0002980DF14B07FB
:102B4000B0F1004F25D002200C902B200D90029860
:102B500000280CDA404202902D200D9007E00A2157
:102B60000298FDF71BFC3031029007F8011D0C990B
:102B7000481E0C900029F2DC02980028EFD1791E43
:102B80000D980870307800F0200040F0450007F8FC
:102B9000020D11A8C01BC01D02901398007800B14F
:102BA000012000EB0901019801EBE071029801445A
:102BB0000398401A401E0390E00306D45346214672
:102BC000179A039800F05CF805441398007818B140
:102BD0005246179990476D1CE00323D55346214672
:102BE000179A039800F04CF805441BE0BBF1000F66
:102BF00007DB0098584504DD1098179910F80B0072
:102C000001E0179930205246904701980BF1010BD3
:102C1000401E05F10105019004D12E20524617995E
:102C200090476D1CB9F10001A9F10109DEDC05E056
:102C300017F8010B5246179990476D1C0299481ED0
:102C400002900029F4DC53462146179A03989EE629
:102C50002D0000002B000000200000002DE9F041B5
:102C6000044600251E461746880404D405E039466C
:102C70002020B0476D1C641EF9D52846BDE8F081C0
:102C80002DE9F041044600251E469046C80301D5B3
:102C9000302700E02027880404D505E04146384667
:102CA000B0476D1C641EF9D52846BDE8F0810A685E
:102CB000531C0B601070704770B5114E0546002410
:102CC00008213046FDF798FF60F3070410213046D5
:102CD000FDF792FF60F30F2420213046FDF78CFFB3
:102CE00060F3174440213046FDF786FF60F31F6410
:102CF00080213046FDF780FF2C60287170BD0000F8
:102D0000000C014070B5104D0121284600F060F91B
:102D100004460221284600F095F90C498C4205DA58
:102D20005A210B4800F04BFD5A2106E088420ADA8E
:102D30000021074800F043FD0021BDE87040044831
:102D40000C3000F03CBD70BD000C01400000404064
:102D50002402002010B588B000241F48009401947C
:102D60000294039404940594C16941F00201C16185
:102D7000C069224600F00200069005211D20FEF7E2
:102D80005BF91D20FEF74AF91548144901603F21FF
:102D9000C0E901144FF6E851C0E903148461FEF75D
:102DA00069FC08B172B6FEE74FF4805000906946A6
:102DB0000B48FEF7E5FC08B172B6FEE7049404A9DF
:102DC00007480594FEF722FC08B172B6FEE70448F6
:102DD000FEF7AAFC08B010BD00100240000400403D
:102DE000A400002000B5034600F0E6F84FEA000218
:102DF00000F0E2F8801A9842FAD900BDF0B585B02B
:102E00004A4800F075F903A8FFF756FF0022114663
:102E1000464800F0FFF946A1444800F0A4F96420B8
:102E2000FDF7B0FD00220121404800F0F3F99DF8C4
:102E30001000012863D078209DF80F10012960D080
:102E40005FF078019DF80E20012A5CD07822009274
:102E5000CDE901109DF80D00012856D05FF07803F0
:102E60009DF80C00012852D0782235A12F4800F09F
:102E70007AF94FF4FA663046FDF784FD2B4800F0EE
:102E800037F9354C20212046FDF7B6FE012840D009
:102E9000002210212046FDF7B4FE002211462348EF
:102EA00000F0B8F92DA1214800F05DF92F48FDF799
:102EB00009FDF8B12D4DA878FDF72FFAA5F1100402
:102EC00020602878FDF729FA606000220121174868
:102ED00000F0A0F96068FDF732FA05460F46206859
:102EE000FDF72DFACDE9005702460B4620A10F4809
:102EF00000F039F93046FDF745FD05B0F0BD76200C
:102F00009AE776219EE77622A1E77623A8E7762244
:102F1000ABE7012210212046FDF773FE0022114687
:102F2000024800F077F918A1BDE700001802002060
:102F30002031202032202033202034202035200052
:102F40002025632020256320202563202025632061
:102F50002025632000000000000801402020206E92
:102F60006F20466972652020200000002C000020A0
:102F700054656D703A252E32662C2048756D693A7D
:102F8000252E32660000000020202069732046694B
:102F900072652020200000004FF4FA74FFF7B2FEA3
:102FA000204600F0A5F9F9E7884201D3401A70479E
:102FB000C9430844401C704703480068406A0349FD
:102FC0000968084470470000A40000201400002095
:102FD00070B50C4605460122FDF713FE0F20FFF7E2
:102FE00001FF002221462846FDF70BFE114C002070
:102FF0002070FFF7E1FF05460F4E06E0FFF7DCFF0C
:103000002946FFF7D1FFB04207D220780028F5D03B
:10301000E06846F26671884201D9002070BDFDF774
:1030200081F9064A064BFDF706F9BDE87040FDF749
:1030300099B9000000000020A08601009CC420B0C7
:103040007268913F70B50C4605460122FDF7D9FD27
:103050000F20FFF7C7FE002221462846FDF7D1FDCD
:10306000114C00206070FFF7A7FF05460F4E06E0E9
:10307000FFF7A2FF2946FFF797FFB04207D260781B
:103080000028F5D0206946F26671884201D90020F7
:1030900070BDFDF747F9064A064BFDF7CCF8BDE8D1
:1030A0007040FDF75FB9000000000020A08601001D
:1030B0009CC420B07268913F10B5FFF74BFE0B49DE
:1030C000272201F5967000F01CF8084900225431BF
:1030D00001F1E40000F06AFB044904225431BDE828
:1030E000104001F1F00000F061BB0000EC00002096
:1030F00010B5012100F054F8BDE810400120FDF7A3
:1031000041BC10B50446416050002070207A332144
:1031100040F004002072204600F042F832212046A0
:1031200000F03EF80520FDF72DFC0121204600F0BF
:1031300037F80520FDF726FC0C21204600F030F87A
:103140000520FDF71FFC0221204600F029F805208C
:10315000FDF718FC8021204600F022F82046BDE84B
:10316000104000F067B80FB470B586B005460CAAE1
:1031700068460B99FFF724F900246E4605E0315D9F
:10318000284600F02AF8641CE4B26846FDF74CF8C3
:10319000A04201D9102CF2D306B070BC5DF814FB2C
:1031A0001CB501F0F00242F00C038DF8043042F03F
:1031B000080209018DF8052041F00C028DF8062067
:1031C00041F008018DF807106421009101784068F2
:1031D000042301AAFDF7E4FD1CBD1CB501F0F002BB
:1031E00042F00D038DF8043042F0090209018DF818
:1031F000052041F00D028DF8062041F009018DF8FF
:1032000007106421009101784068042301AAFDF7AA
:10321000C7FD1CBD08B506A31B6800931DF801106F
:103220001144C9B241F08001FFF7BAFF08BD0000A8
:1032300000401454017A21F00101017241F00801AB
:10324000FFF7AEBF8EB0FDF779FEFEF755FFFEF734
:10325000FDFD1B4819494FF4804201601949416046
:1032600000218160C0E9031241618161C161016295
:10327000FDF7D2FC08B172B6FEE7FEF7BFFEFEF71F
:10328000EFFEFEF74FFEFFF717FF1C220E496846C0
:10329000FCF7A6FF0021684600F036F80B4C0A49FF
:1032A0001C22A0601C3107A8FCF79AFF002107A888
:1032B00000F02AF8E06000F022F8FEE70058004035
:1032C000EC000020A0860100903D00081C000020BA
:1032D00001460020842900D0C81C704710B5401A50
:1032E000029CE41A6043511AB0FBF1F0184410BD7F
:1032F00010B500B9012000F047FB002010BD10B54B
:1033000000F068FB002010BD7FB50D460446416902
:10331000B0F9080081B1A16971B1FFF7D9FFD4E913
:1033200005128DE80700D4E900102B46226900F051
:103330003EFC039004B070BDFFF7CAFF03A9CDE9BE
:103340000001208A2B4682B2D4E9001000F002FC72
:10335000012801D00020EDE70398EBE74FF4FA7461
:10336000FFF74CFD2046FFF7C3FFF9E72DE9F041D9
:10337000184C0F46054666692068001D00F041FAAA
:1033800038B9206890F82C1001208840A169814349
:10339000A161681C07D137B12168BDE8F0410E4832
:1033A000091D00F071BA20683544B54245602168B6
:1033B00005D2A068BDE8F041091D00F04DBA606873
:1033C000091D00F049FA206B854200D22563BDE853
:1033D000F081000044000020B40500202DE9F041F8
:1033E000054600F05DFA2E4C2069401C20612068E3
:1033F0002C4F10B1E06940B32DE025602069012811
:1034000029D1002606EB860007EB800000F016FAB3
:10341000761C072EF6D323488C3000F00FFA214893
:10342000A03000F00BFA1F48B43000F007FA1D4836
:10343000C83000F003FA1B48DC3000F0FFF91948EF
:103440008C3060601430A06005E02068E96AC06AD2
:10345000884200D82560E06A401CE062E96A0120E9
:10346000A26988401043A06101EB810007EB800056
:10347000291D00F009FA00F033FAE06900280CD0A9
:103480002068E96AC06A884207D207494FF0805035
:103490000860BFF34F8FBFF36F8FBDE8F08100006E
:1034A00044000020D804002004ED00E010B50446DC
:1034B00090F8510058B101280CD002280FD05020AC
:1034C00080F31188BFF34F8FBFF36F8FFEE7206B40
:1034D00000F01AFA2046BDE8104000F015BA10BD01
:1034E00010484FF44061420706D0C01D0D4920F03E
:1034F0000700411AC1F540610B4A00230144C2E9AB
:1035000000030839103A21F0070111604B600B608D
:103510000B1AC0E9001393604FF000405360D06075
:1035200070470000C805002090000020144E154C84
:10353000A6F1C8074FF08058DFF84C9012E000BFAA
:1035400000F0AEF9F068C568281D00F05AF920694E
:10355000401E2061E068401EE06000F0C1F928468E
:10356000FFF7A4FFE0680028EAD138680128F9D9FC
:10357000C9F80080BFF34F8FBFF36F8FF2E70000F1
:10358000A00500204400002004ED00E02DE9F047F4
:103590009A46DDE9098481466FF00303206B03EB53
:1035A00082021044089D20F00706700707D05020C3
:1035B00080F31188BFF34F8FBFF36F8FFEE723189F
:1035C0000A5C83F834200A5C12B1401C1028F6D340
:1035D000002784F84370072D00D30625E562C4E96F
:1035E0001157201D00F035F904F1180000F031F9F1
:1035F0002461C5F107006462A061E76484F850703B
:1036000052464946304600F0BFF82060B8F1000F3E
:1036100001D0C8F80040BDE8F087000030B511497E
:1036200000E011460A688242FBD34B685C18844272
:1036300003D1406818444860084643681C18944207
:1036400009D1084C103C2468A24209D052681A449F
:1036500042600A6812680260814200D0086030BD92
:103660000460F9E79000002006484168096829B124
:103670004168C968C9684968016370474FF0FF3104
:10368000FAE700004400002008484068401C4FF062
:10369000500080F3118804D0BFF34F8FBFF36F8FBA
:1036A000FEE7BFF34F8FBFF36F8FFEE79800002058
:1036B0002DE9F0410546002700F0C2F9314E30688F
:1036C00008B9FFF70DFFF06805424BD1C5B30835C7
:1036D00068070ED005F00700C0F108000544680730
:1036E00007D0502080F31188BFF34F8FBFF36F8F47
:1036F000FEE72DB37068854234D822481030014669
:103700000C6801E020460C466168A94202D221689B
:103710000029F7D131688C4224D007682168016004
:1037200060680837411B10290FD96019420708D07B
:10373000502080F31188BFF34F8FBFF36F8FFEE7E8
:1037400010E041606560FFF769FF61687068401ACA
:103750007060B268904200D2B060F068014300200F
:10376000C4E9000100F0B2FA780707D0502080F3D6
:103770001188BFF34F8FBFF36F8FFEE73846BDE868
:10378000F08100008000002010B5031F4FF080740E
:103790001C601B1F21F001011960191F024B0B60F7
:1037A000143940380A6010BD8936000803460846BF
:1037B000C3E90102002119701146FEF7BBB938B503
:1037C00004460D4640F6C41000904FF4FA73B4223C
:1037D00000212846FFF782FDA16880B239B1042993
:1037E00009D008296168096809D0086438BD616892
:1037F0000968486338BD61680968886338BDC86373
:1038000038BDD0E9013201699A60D0E901235A60DC
:103810004A68824201D182684A60002202610868D7
:10382000401E086008687047034B036003F15400B2
:1038300008608020106070473C02002000F1080101
:103840004FF0FF32C0E90112C16001610021016047
:10385000704700210161704730B50B685A1C02D0D7
:1038600000F1080202E0026904E02246546825687B
:103870009D42FAD953684B6099608A605160086133
:103880000168491C016030BD42684A6093688B60E2
:1038900093685960916008610168491C0160704734
:1038A000502080F31188BFF34F8FBFF36F8F0A4909
:1038B0004868401C486001280CD10848006810F096
:1038C000FF0F07D0502080F31188BFF34F8FBFF355
:1038D0006F8FFEE7704700009800002004ED00E0C5
:1038E0000849486828B1401E486001D180F311881A
:1038F0007047502080F31188BFF34F8FBFF36F8F55
:10390000FEE700009800002070B5002827D0144D75
:10391000A0F108046168E868014207D1502080F3F3
:103920001188BFF34F8FBFF36F8FFEE722683AB164
:10393000502080F31188BFF34F8FBFF36F8FFEE7E6
:103940008143616000F07CF86068696808446860E1
:103950002046FFF763FEBDE8704000F0B7B970BDC8
:10396000800000204FF0E0200021016181610549C5
:103970004FF47A720968B1FBF2F1491E41610721E7
:10398000016170474000002010B5020014D00F48BC
:10399000806B38B1502080F31188BFF34F8FBFF395
:1039A0006F8FFEE700F04CF800211046FFF7DEFCB9
:1039B00000F08CF9002807D105494FF080500860CD
:1039C000BFF34F8FBFF36F8F10BD00004400002086
:1039D00004ED00E010B586B00024039405AA04A904
:1039E00003A80494FFF720FFDDE903010094CDE96B
:1039F000011000230EA11048059A00F0D8F80F49D5
:103A00000028486311D0502080F31188BFF34F8FF6
:103A1000BFF36F8F4FF0FF3008630120C8614C6126
:103A200006B0BDE8104000F041B806B010BD00007F
:103A300049444C45000000002D350008440000209A
:103A40000248816B491C81637047000044000020DC
:103A50001448816B11B1012141627047002141621C
:103A60008169B1FA81F1C1F11F0101EB81020E49B7
:103A700051F822306BB101EB820101F108034A6871
:103A800052684A609A4201D152684A60D168016026
:103A90007047502080F31188BFF34F8FBFF36F8FB3
:103AA000FEE7000044000020D80400201CB5264991
:103AB00008780190FF20087008788DF800009DF8C4
:103AC00000009DF8002000F0F000904207D0502048
:103AD00080F31188BFF34F8FBFF36F8FFEE79DF820
:103AE00000001A4B00F0500018700720986005E0A5
:103AF0009DF8002052008DF80020401E9DF8002007
:103B00001206F5D49860032807D0502080F311885E
:103B1000BFF34F8FBFF36F8FFEE74FF44070986095
:103B2000019808700A48016841F470010160016859
:103B300041F070410160FFF715FF00205860FCF76D
:103B4000F3FA00201CBD000000E400E09800002013
:103B500020ED00E02DE9FF5F8346DDE90E87994601
:103B600016468A469000FFF7A3FD05001CD054209E
:103B7000FFF79EFD040014D00020256384F8510057
:103B8000CDE90240CDE900874B46324651465846C2
:103B9000FFF7FCFC2046FFF721FC012004B0BDE844
:103BA000F09F2846FFF7B0FE4FF0FF30F6E7F0B584
:103BB00085B0DDE90B640A9DA6B1DCB154270097FE
:103BC0002663022684F85160002604AFCDE9024640
:103BD000CDE90057FFF7DAFC2046FFF7FFFB04981A
:103BE00005B0F0BD502080F31188BFF34F8FBFF3B5
:103BF0006F8FFEE7502080F31188BFF34F8FBFF324
:103C00006F8FFEE72DE9F0412E4C0027A06B40B1ED
:103C1000206A401C2062606A00B101273846BDE876
:103C2000F0816669761C666113D16068006838B1FE
:103C3000502080F31188BFF34F8FBFF36F8FFEE7E3
:103C40006068A1686160A060A06A401CA062FFF784
:103C50000BFD206BDFF87080864209D36068006836
:103C600080B16068C068C568686886420DD220630C
:103C70002068C06A00EB800158F821000128CAD9E9
:103C80000127C8E74FF0FF30F1E7281DFFF7B9FD26
:103C9000A86A18B105F11800FFF7B3FDE86A012121
:103CA000A26981401143A16100EB800108EB810012
:103CB000291DFFF7E9FDE86A2168C96A8842CDD36A
:103CC0000127CBE744000020D80400202DE9F0476D
:103CD0002C4D00242746A86B38B1FFF7E1FDA86BF7
:103CE000401EA863A86B40B146E0502080F31188C5
:103CF000BFF34F8FBFF36F8FFEE72969224E01207C
:103D0000D1B3A6F1B40980463068E8B1F068C46860
:103D100004F11800FFF775FD201DFFF772FDE06A42
:103D2000AA6908FA00F11143A96100EB800109EBCF
:103D30008100211DFFF7A8FDE06A2968C96A884251
:103D4000E2D3C5F82480DFE70CB1FFF78DFC2C6AC5
:103D500044B14646FFF756FF00B16E62641EF9D1CA
:103D600000202862686A38B10849012738070860CE
:103D7000BFF34F8FBFF36F8FFFF7B2FD3846BDE83B
:103D8000F0870000440000208C05002004ED00E0D6
:103D9000F03D00085D330008000000000000000056
:103DA000800000000000000000000000E03D00086E
:103DB000992F0008020000000000000080000000B1
:103DC00000000000000000000000000000000000F3
:103DD00001020304060708090000000001020304B1
:103DE00064697374616E63655461736B00000000F5
:103DF000706F736974696F6E5461736B00000000BB
:103E0000203E000800000020A40000000424000858
:103E1000C43E0008A400002024150000142400085B
:103E20000000000000000000000000000000000092
:103E30000000000000000000000000000000000082
:103E40000000000000000000000000000000000072
:103E50000000000001000000100000000000000051
:103E60000024F4000000000000000000000000003A
:103E70000000000000000000000000000000000042
:103E80000000000000000000000000000000000032
:103E90000000000000000000000000000000000022
:103EA0000000000000000000000000000000000012
:103EB000000000000000000000000000AAAAAAAA5A
:043EC00000000000FE
:04000005080000ED02
:00000001FF
